:0200000480007A
:10000000370100801301010BE7000100130000001D
:1000100000000000000000000000000000000000E0
:10002000232E11FE232C51FE232A61FE232871FE6C
:100030002326A1FE2324B1FE2322C1FE2320D1FECC
:10004000232EE1FC232CF1FC232A01FD232811FDA2
:100050002326C1FD2324D1FD2322E1FD2320F1FD30
:10006000130101FCEF0040548320C103832281036C
:1000700003234103832301030325C1028325810256
:1000800003264102832601020327C1018327810140
:100090000328410183280101032EC100832E810022
:1000A000032F4100832F010013010104730020304E
:1000B00097110000938181A917710000130181CD70
:1000C0001385C185938541A56308B50023200500EC
:1000D000130545006FF05FFF176500001305854BA2
:1000E0001301C1FF976500009385C54A630EB500F3
:1000F00083260500130545002320A100E7800600A4
:10010000032501006FF01FFE1301410037150000A9
:1001100013050588731045303725000013058580C9
:1001200073100530EF6000046F0000000000000055
:0401300000000000CB
:100134003139322E3136382E3136382E31393900B4
:100144003139322E3136382E3136382E3100000016
:100154003235352E3235352E3235352E300000000D
:10016400900300808803008080030080780300806F
:10017400700300806803008060030080504255468D
:100184005F504F4F4C000000504255465F52454669
:100194002F524F4D000000005359535F54494D45B1
:1001A4004F555400465241475F50425546000000A7
:1001B4005245415353444154410000005544505F5B
:1001C400504342005241575F50434200E80300004D
:1001D400EC480080E80300007C3C008000202020E4
:1001E40020202020202028282828282020202020E3
:1001F40020202020202020202020202020881010B3
:10020400101010101010101010101010100404040E
:1002140004040404040404101010101010104141CC
:1002240041414141010101010101010101010101BA
:1002340001010101010101011010101010104242CE
:10024400424242420202020202020202020202028A
:10025400020202020202020210101010200000002A
:10026400000000000000000000000000000000008A
:10027400000000000000000000000000000000007A
:10028400000000000000000000000000000000006A
:10029400000000000000000000000000000000005A
:1002A400000000000000000000000000000000004A
:1002B400000000000000000000000000000000003A
:1002C400000000000000000000000000000000002A
:1002D400000000000000000000000000000000001A
:1002E400000000000000000000000000000000000A
:1002F40000000000000000000000000000000000FA
:1003040000000000000000000000000000000000E9
:1003140000000000000000000000000000000000D9
:1003240000000000000000000000000000000000C9
:1003340000000000000000000000000000000000B9
:100344000000000000C00000E40200800000000083
:1003540000000000FFFFFFFFFFFF0000800100809E
:10036400FC0500008C010080100000009C0100804E
:1003740010000000A801008018000000B4010080F3
:1003840020000000C001008024000000C80100809B
:100394002000000002000000FFFFFFFF000000003B
:04059C00E4020080F5
:1005A000130510006780000067800000678000006E
:1005B000130500006780000067800000678000006E
:1005C000130101FE23282101370500809385C18591
:1005D00013054513232E1100232C8100232A91009B
:1005E000EF50C05F630205021304F0FF130504001F
:1005F0008320C101032481018324410103290101D6
:100600001301010267800000370500809305810017
:1006100013054514EF50805CE31805FC3705008096
:100620009305C10013054515EF50405B1304050009
:10063000E31C05FAEF00C0281388C1B4938781A595
:1006400013070000930681001306C1009385C1853E
:1006500013858188EF00504AE30805F813858188E7
:10066000EF00D05B13858188EF00D05B6FF01FF83F
:1006700067800000130101FF23261100EF50005690
:100680008320C100133515003305A040130101017B
:1006900067800000130101FF23248100232611003D
:1006A00023229100232021010357A5009307000175
:1006B0001304050063ECE7009387C18D03D707019E
:1006C000130717002398E7006F00000A8347F5001F
:1006D000138905006398070083C7450393871700B4
:1006E000A307F500032544008344F5008347E50094
:1006F00093948400B3E4F4008347250013F71700B4
:100700006306070213071000639CE7068347350062
:10071000639E0700034745009307E0056318F70051
:100720008347D40093E70701A306F40093078000F2
:100730006388F40693078060E390F4F88347190315
:1007400093F78700638807029305000113050400EF
:10075000EF108017630805089387C18D03D7A700A2
:10076000130717002395E70003D767001307170047
:100770002393E70013050400EF10801D6F00C004F1
:10078000130660009385018113052500EF501020AA
:10079000E31E05F88347D40093E787006FF0DFF886
:1007A0008347190393F78700E38607FC930500014D
:1007B00013050400EF104011E31E05FA930509002C
:1007C00013050400EF40D0488320C10003248100BA
:1007D00083244100032901001305000013010101D6
:1007E000678000009305090013050400EF308024A2
:1007F0006FF09FFD130101FD232E310193090500C8
:10080000130507002322910223202103232C4101F9
:10081000138905002326110223248102130A0600EE
:100820002326D100EF00400C93040500930500013E
:1008300013050900EF104008631205060324490060
:100840008326C100130660002307940093D484001C
:10085000A30794009385060013052400EF5010169B
:1008600093050A001305840013066000EF5010156D
:100870000324810203A389018320C102832441024E
:10088000032A810193050900138509000329010248
:100890008329C10113010103670003008320C10202
:1008A0000324810283244102032901028329C10117
:1008B000032A81011305E0FF130101036780000093
:1008C000130101FF23261100EF204016EF00406FB7
:1008D000EF000077EF00100FEF2040418320C100B0
:1008E000130101016F200026931785001355850021
:1008F00033E5A700131505011355050167800000B6
:100900001357850193178501B3E7E700B706FF008A
:10091000131785003377D700B3E7E70037070100E7
:10092000130707F0135585003375E50033E5A7007D
:1009300067800000130101FE232C810013040500D1
:1009400013850500232A910023263101232E11004F
:10095000232821019389050093040600EF505019C4
:100960006300050213090500B304940083470400E3
:10097000638607003307240163F4E40213040000D4
:10098000130504008320C101032481018324410154
:10099000032901018329C1001301010267800000BE
:1009A00003C70900631CF7001306090093850900BB
:1009B00013050400EF509015E30405FC1304140024
:1009C0006FF0DFFA130890011305150093851500E9
:1009D0000347F5FF83C7F5FF630EF70013660702B1
:1009E0009306F6F993F6F60F636CD80093E70702C7
:1009F0006318F600E31A07FC130500006780000087
:100A000013051000678000001306F6FF930700002F
:100A1000130390013307F500834607003387F50081
:100A200003470700638EE60093E806021388F8F98F
:100A30001378F80F6360030313670702639CE800F1
:100A40006306F60093871700E39606FC1305000083
:100A5000678000001305100067800000130101FE8D
:100A60002328210123244101232E1100232C81005E
:100A7000232A910023263101930710001309050052
:100A8000138A050063E6B7026394F50023000900AA
:100A90008320C10103248101832441010329010131
:100AA0008329C100032A810013010102678000002D
:100AB00093090500635806009307D00293091500B7
:100AC0002300F5009357F6411304FAFF330489001D
:100AD000B3C4C700B384F440230004006382040459
:100AE000E3F689FA9305A00013850400EF508064B3
:100AF000130505031304F4FF2300A4009305A000CD
:100B000013850400EF50C05A930405006FF01FFDD9
:100B1000930700032380F900A38009006FF05FF7BB
:100B200083470400E38607FE330649013306864007
:100B300093050400032481018320C1018324410122
:100B400003290101032A8100138509008329C100BB
:100B5000130101026F500074130101FF23170100FC
:100B600093761500638C0600635AB0008347050036
:100B70009385F5FF13051500A307F1009307000007
:100B8000130710006340B7066396E50003470500AE
:100B90002307E1000355E100370701001307F7FFC2
:100BA0003305F500935705013375E500B387A700BA
:100BB00013D50701B3F7E7003305F500638C060092
:100BC000931785001355850033F7E7001375F50F6C
:100BD0003365A70013150501135505011301010124
:100BE00067800000130525000356E5FF9385E5FFA8
:100BF000B387C7006FF01FF9130101FE232C81009A
:100C0000232A910023282101232631012324410195
:100C100023225101232E11000327070083A606007B
:100C2000B70701009387F7FF3374F70013570701E5
:100C30003304E40033F7F6003304E40093D60601EE
:100C4000B386860013D40601B3F6F600B306D400CB
:100C500013D40601B3F6F60093090500138A0500C4
:100C6000130906003304D400930A0000938407009C
:100C70006398090863800A0237070100931784000C
:100C80001307F7FF13548400B3F7E7001374F40F4E
:100C900033E4870013050A00EFF01FC59304050035
:100CA00013050900EFF05FC43385A400B707010006
:100CB000330485009387F7FF135504013374F40060
:100CC00033048500135504013374F40033048500A4
:100CD0001345F4FF8320C10103248101131505018D
:100CE00083244101032901018329C100032A8100D2
:100CF000832A41001355050113010102678000009A
:100D000083D5A90003A54900EFF01FE53304850052
:100D100093570401337494003384870083D7A90068
:100D200093F71700638E0700931784001354840011
:100D3000B3F797001374F40F93CA1A0033E48700D3
:100D400083A909006FF0DFF26FF01FEB130101FDC3
:100D5000232481022322910223202103232C4101F9
:100D6000232A51012328610123261102232E310158
:100D70001309060003A6070003270700B7070100B1
:100D80009387F7FF3374F600135606013304C4004B
:100D90003376F7003304C400135707013307870085
:100DA000135407013377F7003307E40013540701A6
:100DB0003377F700130A0500938A05003304E40033
:100DC000130B000093840700631C0A0663160B0EC6
:100DD00013850A00EFF05FB19304050013050900C5
:100DE000EFF09FB03385A400B707010033048500FE
:100DF0009387F7FF135504013374F400330485001F
:100E0000135504013374F400330485001345F4FFD3
:100E10008320C102032481021315050183244102AA
:100E2000032901028329C101032A8101832A410187
:100E3000032B010113550501130101036780000015
:100E4000E38606F88357AA009389070063F4F60047
:100E5000938906009399090103254A0093D9090152
:100E6000938509002326D100EFF01FCF33048500BE
:100E7000935704018326C1003374940033848700A0
:100E80008357AA00B38936419396090193F7170057
:100E900093D60601638E07009317840013548400D1
:100EA000B3F797001374F40F134B1B0033E4870060
:100EB000032A0A006FF05FF13707010093178400DF
:100EC0001307F7FF13548400B3F7E7001374F40F0C
:100ED00033E487006FF0DFEF6FF05FE7130101FF8E
:100EE00023261100EFF05FC78320C1001345F5FFF3
:100EF0001315050113550501130101016780000059
:100F0000130101FE2328210137090100232C810050
:100F1000232A910023263101232E1100930405007A
:100F200093090000130400001309F9FF63960404F9
:100F30006380090237070100931784001307F7FF46
:100F400013548400B3F7E7001374F40F33E48700FD
:100F50001345F4FF8320C10103248101131505010A
:100F600083244101032901018329C100135505018F
:100F7000130101026780000083D5A40003A544008B
:100F8000EFF09FBD330485009357040133742401AF
:100F90003384870083D7A40093F71700638E07007C
:100FA0009317840013548400B3F727011374F40FCC
:100FB00093C9190033E4870083A404006FF01FF77E
:100FC0006780000067800000130101FF2324810077
:100FD00023261100EFF05FFF1304050063160500E0
:100FE000EFF08FDDEFF08FDD130504008320C100EB
:100FF0000324810013010101678000006F000000DD
:101000006F00000013053500130101FF1375C5FFC4
:101010002326110023248100EFF01FFB1304050099
:10102000EFF08FD9EFF08FD9130504008320C100B2
:101030000324810013010101678000006780000024
:101040006780000063060500035545006FF09FFBB5
:10105000678000009307600063E0A70293172500F4
:1010600037050080130545163305F5008327050075
:1010700003D547006FF01FF91305000067800000DB
:10108000630A050263880502130101FF232611008C
:101090002324810013840500EFF00FD2EFF00FD26C
:1010A00013050400032481008320C1001301010102
:1010B0006FF0DFF4678000009307600063EAA70227
:1010C00063880502130101FF2326110023248100F8
:1010D00013840500EFF04FCEEFF04FCE1305040060
:1010E000032481008320C100130101016FF01FF16F
:1010F00067800000130540FF6780000083471503E9
:101100009306500013F657006312D60293F51500AC
:10111000638E050083264500638A060093F78700E7
:1011200063860700930545006F2010336780000039
:101130008327450003A705006302F708130101FE9A
:101140002320F600232C810023282101130405000D
:1011500013890500130506009305C100232E110015
:101160002326E100232A910093040600EF20003E8D
:101170009305C10013850400EF1050078327090071
:1011800093051000130504002322F400EFF01FF76D
:101190008327C4016386070013050400E780070066
:1011A0008320C1010324810183244101032901011A
:1011B00013051000130101026780000013050000F1
:1011C000678000006780000083C7150393F78701DD
:1011D000638407006FF00FCC6F4080276304050223
:1011E000130101FE232E1100639405009385818570
:1011F0001306C100EFF0DFF38320C10113010102E8
:101200006780000067800000630E0500639405009E
:101210009385818583A70500032785006384E70004
:101220002324F50067800000630E05006394050029
:101230009385818583A705000327C5006384E700A4
:101240002326F50067800000130101FD232481029D
:101250002322910223202103232611029304050057
:101260001309060013840500639405001384818527
:101270006314090013898185639406009386818530
:101280008327040063860700930700006F000002B5
:101290001306C10193050400138504002326D10021
:1012A000EFF01FE98326C100930710000327090010
:1012B00003A684006304C70023A4E40003A7060078
:1012C00083A6C4006304D70023A6E400639A070042
:1012D0001306C1019305040013850400EFF05FE5D8
:1012E0008320C102032481028324410203290102D5
:1012F0001301010367800000130101FE232E11007A
:10130000232C8100232A910063100502130400009E
:10131000130504008320C1010324810183244101BA
:101320001301010267800000E38207FE1304050039
:101330006394050093858185631406001386818577
:1013400063940600938681852322E40203C7018605
:101350001385C15A232AA400232204001305040084
:10136000232404002326040023140402A3080402F7
:10137000232E040023200402230AE402232804016C
:10138000232C04022326F100EFF01FEC8327C10079
:1013900013050400E7800700E31A05F603A681861B
:1013A000138707009305F00F834744036394B70046
:1013B000230A04028347440393060600639406024B
:1013C0009305E00F930600006386B700938717002C
:1013D00093F6F70F2320C4002380D18623A48186AF
:1013E0006FF01FF303C546036318F50093871700DA
:1013F000230AF4026FF05FFB83A606006FF01FFC68
:101400001388060093070600138705009306000063
:1014100013060000930500006FF01FEE23A2A186C3
:1014200067800000630E0504130101FF232481007F
:1014300023261100834715031304050013F7170033
:101440006318070293E71700A308F5028327C50175
:1014500063840700E780070013050400032481006C
:101460008320C10093053000130101016FF01FC9F3
:101470008320C10003248100130101016780000063
:101480006780000063000506130101FF232481002B
:1014900023261100834715031304050013F71700D3
:1014A000630A070213F7E7FFA308E50293F7870033
:1014B00063840700EF20C0430323C401630C0300CF
:1014C00013050400032481008320C10013010101DE
:1014D000670003008320C100032481001301010180
:1014E0006780000067800000630E0508130101FF9C
:1014F0002324810023261100232291008327450005
:10150000130405006380070293044500930500005F
:1015100013850400EF208003930500001385040069
:10152000EF10C04C8347140393F71700638607003E
:1015300013050400EFF01FF503A74186631487002D
:1015400023A2018683A781866392870283270400F2
:1015500023A4F1868320C100032481008324410059
:10156000130101016780000093070700E38407FE71
:1015700003A70700E31A87FE0327040023A0E70060
:101580006FF05FFD6780000063040500232EB50047
:1015900067800000630E0504130101FF232481000E
:1015A00023261100834715031304050013F7470092
:1015B0006318070293E74700A308F502930530007C
:1015C000EFF0DFB303230402630C030013050400F0
:1015D000032481008320C10013010101670003007F
:1015E0008320C100032481001301010167800000F2
:1015F00067800000630205020347150393764700E6
:10160000638C0600032305021377B7FFA308E502E6
:1016100063040300670003006780000063040500A3
:101620002320B502678000009307000063060500D1
:1016300083A78186639607001385070067800000F3
:1016400003C74703130717001377F70FE306A7FE37
:1016500083A707006FF01FFE130101FF2324810001
:101660002322910023261100930405001384050012
:10167000EFF09FFB63040502834725031386F4FF05
:10168000930540002300F40083473503130524002D
:10169000A300F400EFF08FBC130504008320C10009
:1016A00003248100832441001301010167800000AD
:1016B000631605001305000067800000130101FF99
:1016C000232481001304050013052500232611009F
:1016D000EF40502A9377F50F03A58186631C050020
:1016E000130500008320C1000324810013010101C0
:1016F0006780000003474503631EF700834604002C
:10170000034725036398E600834614000347350327
:10171000E38AE6FC032505006FF05FFC130101FF7F
:1017200023261100EFF0DFF8630E050003454503A3
:10173000130515001375F50F8320C1001301010176
:1017400067800000130500006FF01FFF63060500AF
:101750008357A50063F8F500630406002310B60064
:1017600067800000B385F5409395050193D5050189
:10177000032505006FF09FFD930705006302050830
:10178000370701001305100063FEE506130500008E
:10179000638A050603D787009396050193D6060151
:1017A0003387E600131707011357070113051000CD
:1017B000636AD7040385C700635E050003A647007C
:1017C00013051000B305B6401386070163FCC5007E
:1017D00067800000130510006306060203A6470099
:1017E000B305B64003D6A70023A2B7002394E700B1
:1017F000B386C6002395D70013050000678000005C
:101800001305100067800000130101FE232C8100E6
:101810001304050013055000232E11002326B100E8
:101820002324C100EFF01F83630605028325C10056
:101830000326810093071000232005002322850042
:101840002314B5002315B5002306C500A306050023
:101850002317F5008320C101032481011301010234
:1018600067800000131505011355050113053500A8
:101870001375C5FF3388A50063EC070363040700F5
:101880003307A70093072000A386F60093071000F4
:101890001385060023A0060023A2E6002394B600C9
:1018A0002395B6002386C6002397F60067800000C4
:1018B0001305000067800000130600006FF0DFEBE7
:1018C000130610006FF05FEB93070500630A050431
:1018D000370701001305100063F6E5041305000047
:1018E0006382050403D7A7009396050193D60601EA
:1018F000130510006368D7023307D74003A64700DB
:101900002395E70003D78700B305B60023A2B700ED
:101910003307D7402394E7001305000067800000D9
:10192000130510006780000063D60500B305B040C2
:101930006FF09FF9130600006FF01FE463D60500F7
:10194000B305B0406FF05FF8130610006FF0DFE2F0
:10195000130101FD23248102232611022322910277
:1019600023202103232E3101130400006304050604
:1019700093050500130400001309200093091000CB
:101980002326B100EFE05FC38325C10083C4E500D7
:101990009384F4FF93F4F40F23879500EFE01FC2C4
:1019A000639A04028325C10083C7D50083A4050080
:1019B00093F727006380070483A7050113850500BB
:1019C000E7800700130414001374F40F93850400D8
:1019D000E39804FA130504008320C1020324810262
:1019E00083244102032901028329C1011301010358
:1019F0006780000083C7C5001305600093F7F700F8
:101A0000638627016398370113055000EFF0CFEA92
:101A10006FF05FFBE39807FA13850500EFF00FDE28
:101A20006FF05FFA930710046308F61A130101FDC3
:101A30002326110223248102232291022320210341
:101A4000232E3101232C410163EAC70293071000C2
:101A5000630CF60A930400008320C1020324810270
:101A60001385040003290102832441028329C10153
:101A7000032A81011301010367800000131405018B
:101A800093072018135404016302F60A93070028F1
:101A9000E312F6FC13043400938735001374C4FF7B
:101AA00093F7C7FF3304F400131404011354040123
:101AB0002326B1001309050013050401E36CF4F8B3
:101AC000E36AF5F8EFF04FD093040500E30605F85C
:101AD00013190901135909018325C100330925018F
:101AE00013093901B70701001379C9FF9387070864
:101AF00023200500232225012314B5002315B5005A
:101B00002326F5006FF05FF5032481028320C102D4
:101B100083244102032901028329C101032A81018F
:101B200013050000130101036FF01FCE37090100F8
:101B30009309000093040000130AC05E13092908EA
:101B4000130560002326B100EFF0CFD08325C1003C
:101B5000631A0500E38004F013850400EFF05FDFF3
:101B60006FF05FEF9307340093F7C7FFB307FA40B6
:101B7000138707009397070193D7070163F4F500D4
:101B80001387050033048500130434011374C4FF64
:101B90009317070123200500232285002314B50095
:101BA0002315E5002326250193D70701638204024C
:101BB00023A0A900B385F5409395050193D50501B0
:101BC0001304000093090500E39C05F66FF0DFE8BD
:101BD000930405006FF01FFE130500006FF0DFF4A3
:101BE0008357850063F4F50A130101FF2324810064
:101BF000232291002326110013040500938405007D
:101C0000B387F5408355A40063E295068347C4007B
:101C100093F7F70063960702638495028347D40025
:101C200093F72700639E07008325440013050400F3
:101C3000B3858540B3859500EFF0CFB81304050058
:101C40000325040023159400231494006304050065
:101C5000EFF01FD0232004008320C1000324810063
:101C600083244100130101016780000003578400B1
:101C7000B384B440939404013387E7002314E40051
:101C800093D40401032404006FF0DFF767800000A1
:101C9000130101FE232C8100232E1100232A910021
:101CA0001304050063820504630004048357A40041
:101CB00063E8F502B385F54083240400939505019C
:101CC00093D5050123200400130504002326B10049
:101CD000EFF01FC8138404008325C1006FF09FFC40
:101CE00013050400EFF05FBE130504008320C1015B
:101CF0000324810183244101130101026780000054
:101D00009307000063160500138507006780000035
:101D1000938717009397070193D7070103250500C1
:101D20006FF05FFE630A0502130101FF23248100A7
:101D30002326110013040500EFE01F888347E40009
:101D4000938717002307F400032481008320C10038
:101D5000130101016FE09F8667800000630A05029E
:101D60006396050067800000130507008357850010
:101D700083D6850003270500B387D7009397070113
:101D800093D707012314F500E31007FE2320B500C5
:101D900067800000130101FF232481002326110026
:101DA00013840500EFF09FFB13050400032481005A
:101DB0008320C100130101016FF0DFF6130101FF61
:101DC0002326110023248100032405006306040256
:101DD000835785000357A500B387E7402314F40019
:101DE0008357A500232005002314F50013050400E4
:101DF000EFF01FB663040500130400001305040090
:101E00008320C100032481001301010167800000C9
:101E100063040510130101FE232C8100232E110001
:101E2000232A910023282101232631012324410163
:101E300013840500638E05060357850083D785004C
:101E4000930405006366F706130A00009309000077
:101E500003D9A4008357A40033093941B38747410C
:101E600063F427011389070003A544008325440078
:101E70001306090033053501B3854501EF400034F1
:101E80000357A400330A2A01B389290183D7A40088
:101E90006366EA0003240400130A0000639EF9024B
:101EA00083A4040063980402130500006304040083
:101EB000130500FF8320C101032481018324410114
:101EC000032901018329C100032A810013010102B2
:101ED0006780000093090000630C04000357A4000E
:101EE000835784006316F700832704006392070278
:101EF00003D7A40083D784006316F70083A70400E8
:101F000063980700E31604F4130500006FF09FFACE
:101F10001305A0FF6FF01FFA130500FF6780000094
:101F2000130101FE232C8100232E1100232A91008E
:101F30002328210123263101232441011304000019
:101F400063000502138A050013040000638A05007C
:101F50001309050093040600638404006314090256
:101F6000130504008320C10103248101832441015E
:101F7000032901018329C100032A81001301010201
:101F8000678000008355A900638E060063ECB600ED
:101F9000B386B6409396060193D60601032909003D
:101FA0006FF09FFBB385D5409395050193D505014F
:101FB0009389050063F4B4009389040083254900E4
:101FC0009399090193D90901B385D50033058A0096
:101FD0001386090033043401B3843441EF40001EFA
:101FE00013140401939404011354040193D40401C1
:101FF000930600006FF09FFA130101FE232E1100DB
:10200000232C8100232A9100631005021304000091
:10201000130504008320C1010324810183244101AD
:10202000130101026780000013840500E38005FEB0
:1020300093840600E36CD6FC1306E10093050700C9
:10204000EFF0CFF0E30405FC8356E1000356A50052
:10205000338796006348E600032445003304D40028
:102060006FF01FFB1386040093050400EFF05FEB95
:10207000E30095FA6FF09FF96FF04FED630C0508E0
:10208000130101FE232A910023244101232E110074
:10209000232C8100232821012326310193040500EC
:1020A000138A0500130500FF638C050083D78400A5
:1020B000130406001305F0FF9309000063F6C7043C
:1020C0008320C101032481018324410103290101EB
:1020D0008329C100032A81001301010267800000E7
:1020E00003D9A400637424011309040003A5440068
:1020F000B3053A0113060900EF40400C83A4040025
:1021000033042441B3892901E31C04FC13050000B6
:102110006FF01FFB130500FF67800000130101FD36
:1021200023248102232E3101130406009389050024
:102130001306E10093850600232611022322910253
:1021400023202103EFF08FE0630205080357E1002D
:102150008356850093040500B30787001305F0FF3D
:1021600063C8F60483D7A40013090400B387E740CB
:1021700063D68700139907011359090103A5440089
:1021800013060900938509003305E500EF400003BD
:1021900033062441131606011356060113050000E9
:1021A0006308060003A50400B3852901EFF01FEDC5
:1021B0008320C102032481028324410203290102F6
:1021C0008329C10113010103678000001305F0FF9B
:1021D0006FF01FFE130101FF2322910093040600FC
:1021E0001386050083D58400232481002326110053
:1021F000EFF05F8313040500630605009385040078
:10220000EFF01FC1130504008320C10003248100E7
:10221000832441001301010167800000130101FFC5
:102220002324810023261100232291008327050007
:102230001304050063900702930404008320C10087
:10224000032481001385040083244100130101014C
:10225000678000001385050013060400930500281D
:10226000EFF05FF793040500E30805FC1305040095
:10227000EFF00FEE6FF09FFC130101FE1306E1007B
:10228000232E1100EFF08FCC9307F0FF63000502BF
:102290000357E1008356A5009307F0FF6378D7004A
:1022A00083274500B387E70083C707008320C10168
:1022B000138507001301010267800000130101FF6D
:1022C00023261100EFF05FFB6354050013050000A7
:1022D0008320C1001375F50F130101016780000011
:1022E000130101FE232C8100130406001306E100F4
:1022F000232E1100EFF08FC5630E05000357E10098
:102300008357A5006378F70083274500B387E7006C
:10231000238087008320C10103248101130101026E
:102320006780000003578500B387D5006358F70026
:10233000370501001305F5FF67800000130101FD5B
:102340002324810223229102232611022320210328
:10235000232E3101930405001384050083D7A400C4
:10236000636CF40083A404003304F44013140401E8
:1023700013540401E39404FE930900001399090126
:10238000135909016366D900130500006F00800529
:10239000B30589009395050193D5050113850400C4
:1023A0002326D1002324C100EFF05FF10326810032
:1023B000938919008326C100B307360183C7F7FF4D
:1023C000E38EA7FAB70701009387E7FF130509001B
:1023D00063F427011305E0FF13051500131505012C
:1023E000135505018320C102032481028324410285
:1023F000032901028329C101130101036780000041
:10240000130101FE232E1100232C8100232A9100A9
:1024100023282101232631012324410183578500EC
:102420003307D60063C2E702B387C740939407011E
:1024300093090500138A050013090600138406009A
:1024400093D4040163F88402370401001304F4FFF9
:10245000130504008320C101032481018324410169
:10246000032901018329C100032A8100130101020C
:10247000678000009306090013060A009305040014
:1024800013850900EFF01FEAE30405FC13041400B0
:1024900013140401135404016FF0DFFA130101FE59
:1024A000232C810023282101232E1100370901004C
:1024B000232A91001304F9FF638C050483C70500E8
:1024C00063880704835785006386870493040500A7
:1024D000138505002326B1001309E9FFEF30506191
:1024E0006368A90203248101131605018325C10035
:1024F0008320C101032901011385040083244101C4
:102500009306000013560601130101026FF05FEFFE
:10251000930704008320C101032481018324410126
:1025200003290101138507001301010267800000E0
:10253000130101FD232291029387418C2324810200
:1025400023202103232E3101232C4101232A510171
:10255000232861012326710123261102130A050095
:1025600083A5070003A54701930900009384418CCC
:10257000EF30405C83274A00130B050083CA9700A5
:1025800003A4C1861305000013890700630A040829
:10259000834744016394570D03478400630C07008D
:1025A00083A7440083C747039387170093F7F70F68
:1025B0006316F70A630C0B088347940093F707022E
:1025C000638E070883270400639A07088347540132
:1025D00093F71700638807000327440083A70401CB
:1025E000631EF70683278401638A07060325C40157
:1025F0009386418D13060A0093050400E7800700C7
:102600006304050613051000638C09008327040189
:1026100023A8F90083A7C18623A681862328F40076
:102620008320C10203248102832441020329010281
:102630008329C101032A8101832A4101032B01015E
:10264000832BC1001301010367800000832704006E
:10265000E38E07F603A74401E38AE7F69309040033
:10266000032404016FF09FF2130520006FF01FFF99
:102670009307A0FF630A05006388050083A7050090
:102680002320F500930700001385070067800000F2
:10269000930700006388050083C7450393871700ED
:1026A00093F7F70F2304F5006780000093070500F8
:1026B0001305A0FF638207026380050203A70500DC
:1026C0001305000023A2E70003C757011367170093
:1026D000A38AE700678000006780000083475501F8
:1026E000232205002304050093F7E7FFA30AF50062
:1026F00067800000232CB500232EC50067800000F2
:10270000130101FE232E1100232C8100232A9100A6
:1027100023282101232631012324410123225101B1
:10272000631605009304A0FF6F00C006E30C06FECD
:10273000E38A06FEE30807FE83475501130A0700F4
:102740001389060093F72700930A060013840500F7
:10275000930405006384070603D7A500930730019F
:10276000E3F2E7FC9304C50023AC9602138806004D
:1027700093070000130700009306000013060000F3
:1027800093050A0013050400EF30002893040500A8
:10279000232C09028320C101032481011385040035
:1027A00003290101832441018329C100032A8100F7
:1027B000832A4100130101026780000003D78500CE
:1027C000B70701009387B7FE63F6E7009304F0FFB5
:1027D0006FF05FFC9305400113050400EFF0CF8D0F
:1027E000630C05041306002893050000130540023E
:1027F000EFF04FA393090500E30A05FC835784001B
:102800006386070093050400EFF0CFD883C79400D8
:1028100093F70702639E070203A50A0093050900C8
:10282000EF30403163060502E30E34EF13850900F3
:10283000EFF00F926FF01FEF9305400113050400B6
:10284000EFF08F88E31405F8930904006FF01FFC84
:102850009387C40083C6B400232CF90283C74401C4
:1028600003C7A4001308090013860A0093050A0091
:1028700013850900EF304019232C09029304050049
:10288000E30A34F113850900EFF08F8C6FF09FF0AD
:102890006306050863040608130101FF2324810071
:1028A0002322910023202101232611001304050077
:1028B000034585009304060013890500630605049B
:1028C000EFE09FD6630005068327040063840704B6
:1028D00093F7070F1307000E638EE7021307040038
:1028E0009306050013050400032481008320C10022
:1028F0001386040093050900832441000329010085
:10290000130101016FF0DFDF13050600EF20502AED
:102910006FF05FFB130745006FF09FFC1305A0FFEE
:10292000678000008320C1000324810083244100CC
:10293000032901001305C0FF130101016780000096
:10294000130645006FF0DFF483A7C18693050500E9
:10295000639CA7008327050123A6F18613050000C9
:102960006FE08FF593070700E38A07FE03A70701CF
:10297000E30607FEE318B7FE03A7050123A8E70057
:102980006FF0DFFD130101FF232291009304050086
:10299000130500002324810023261100EFE08FEBB4
:1029A00013040500630405021306000293050000EA
:1029B000EF3000609307F0FFA305F40003A7C18682
:1029C000230A940023A681862328E400130504002B
:1029D0008320C100032481008324410013010101ED
:1029E00067800000138505006FF0DFF963000502C2
:1029F00083270500638C0700638A050083A7050011
:102A00006386070083A7C186639407006780000080
:102A100083A60700032705006396E60003A70500C9
:102A200023A0E70083A707016FF01FFE6780000067
:102A3000130101FE232C810013040500130540003F
:102A4000232E11002326B1002324C100EFE08FE0E4
:102A5000630405028325C1000326810083A7418703
:102A6000232005002324B5002326C500232285004A
:102A7000639C070023AAA1868320C101032481014E
:102A8000130101026780000083A64700B306D4400B
:102A900063D806002320F5006FF0DFFD93070700E1
:102AA00003A707006308070083264700B306D44046
:102AB000E3D606FE2320E50023A0A7006FF0DFFB8E
:102AC000130101FE232E1100832745002326A100B8
:102AD000E7800700EFD0DFAD0326C10083A70187A1
:102AE00003270600B7350080938505ACB307F700D0
:102AF000B386A7403305A70063C40600138507000B
:102B00008320C101130101026FF09FF2130101FE46
:102B1000232C8100232E1100130405002326B1006D
:102B20002324C100EFD0DFA83305850003248101F1
:102B3000032681008325C1008320C1011301010206
:102B40006FF01FEF130101FF23248100370600807F
:102B50003734008023229100930504AC9304061DB2
:102B60001305803E1306061D23261100EFF01FFA01
:102B7000930504AC032481008320C10013868400E4
:102B8000832441001305803E130101016FF01FF8FB
:102B900083A741879306070013060000639E070082
:102BA000678000002320E6006F00C0021386070044
:102BB000E30807FE9307070003A8870003A70700A1
:102BC000E316A8FE03A8C700E312B8FEE31C06FC48
:102BD00023AAE18693850700130540006FE0CFCD5F
:102BE000130101FE232A91002326310123244101F0
:102BF000232E1100232C810023282101EFD05F9B7D
:102C00009309050083A54187638E050283A74500CC
:102C10003387F9406348070203A7050003A4850032
:102C20001305400023AAE18603A9C50023A8F18665
:102C3000EFE08FC8E30804FC13050900E700040077
:102C40006FF05FFC8320C1010324810183244101D3
:102C5000032901018329C100032A81001301010214
:102C600067800000130101FF2324810083A74187AF
:102C70002326110063840702EFD09F9383A7418727
:102C800003A747003305E54003A747003307A70024
:102C900023A2E70083A70700E39807FE8320C10073
:102CA000032481001301010167800000130101FF6B
:102CB0002324810083A74187232611001305F0FFF9
:102CC000638E0700EFD0DF8E83A7418783A747007D
:102CD0003385A74063540500130500008320C1001D
:102CE0000324810013010101678000006780000058
:102CF000130101FD232481022326110223229102C4
:102D000023202103232E3101232C4101232A5101A9
:102D100023286101232671019387C18D03D72706DC
:102D2000130717002391E7068356A50013077000C9
:102D30006364D70403D7A706130717002395E70694
:102D400003D76706130717002393E70603248102BE
:102D50008320C10283244102032901028329C10186
:102D6000032A8101832A4101032B0101832BC10026
:102D7000130101036FE0DFBD1389418C83294500F6
:102D800093040500938B0500032549018325090061
:102D90001384C18D138A418CEF20D05983C7190049
:102DA000930A050003C509009397870033E5A70040
:102DB000EFD09FB383C73900130B050003C529006B
:102DC0009397870033E5A700EFD01FB203A8818750
:102DD0000323490083264901032E090193070800B4
:102DE00013090000930500009308F0FF639C07009F
:102DF000631E090A83A74B00638AD70A1385040060
:102E00006FF0DFF403D76701631EA70E83CE870040
:102E1000638A0E0003474303130717001377F70F66
:102E20006392EE0E638A0A0C03C7970013770702BA
:102E3000630A070C03A70700630C0700638A1601E7
:102E400083AE8B003347D7003377D701631C070A63
:102E500003C74701137747006314070263000902A1
:102E600063800A02639E160103A74B00832E0900AC
:102E70006388EE0083AE07006314D701138907004F
:102E800003D787016310670903A74700630407009E
:102E9000631AC707638E050603A7070123ACF186F3
:102EA00023A8E50023A807011389070083C7790039
:102EB00003C7690093978700B3E7E70063820706BB
:102EC00003D684001387818D9386418D930510016D
:102ED00013850400EFD05FE763040504835784067D
:102EE000938717002314F40683576406938717000B
:102EF0002313F4066FF09FF003A70700E30A07F41B
:102F0000E308D7F49385070083A707016FF01FEE4E
:102F10000357640713071700231BE4066FF0DFF85D
:102F20009305800013850400EFE01F9AE31E05FA65
:102F3000630609040323C901E30203EC03248102AD
:102F4000032509028320C1028329C101032A8101CB
:102F5000832A4101832BC10013070B001386040051
:102F6000032B010183244102930509000329010277
:102F70009386418D1301010367000300639C0A02DD
:102F800083274A011307000E93F7070F6384E702B4
:102F90008355CA0013850400938585009395050128
:102FA00093D50541EFE09F99930530001385040008
:102FB000EF10006683570407938717002318F40661
:102FC0006FF09FF26394050093858185930700FF5E
:102FD0006304050A83A7818793860700639006062A
:102FE000130E00006314060CB706008003D6863467
:102FF00037030100374800001303F3FF630A660438
:1030000013061600131606011356060193880700CF
:10301000639408042394C63483A70500231BC500CA
:103020002320F50063180E0083A7818723ACA186B7
:103030002328F500930700006F0000046386A600B4
:1030400083A606016FF09FF9130E10006FF09FF931
:1030500037C600006FF09FFB83DE68016392CE02EB
:103060001308F8FF1318080113580801E31808F8AB
:103070002394C634930780FF138507006780000000
:1030800083A808016FF0DFF86380A70283D6670189
:10309000639CC60003A8050083A60700E38C06FD19
:1030A000E30A08FCE38806FC83A70701E39E07FC0C
:1030B0006FF09FF6130101FD2322910223261102D6
:1030C0002324810223202103232E3101232C4101BB
:1030D000232A51012328610123267101930400FF53
:1030E0006302050863800508630E0606638C070605
:1030F000630A0706138B070083479500130A07002E
:10310000938B060093F70702930A06009389050044
:1031100013040500638E070283576401639E070052
:10312000130600009305040013050400EFF09FE967
:10313000930405006318050203D78900B70701004F
:10314000938777FF63F8E7049304F0FF6F00800133
:1031500003250600930507009304A0FFEF20901DB0
:10316000E30C05FA8320C1020324810213850400C5
:1031700003290102832441028329C101032A810119
:10318000832A4101032B0101832BC1001301010399
:10319000678000009305800013850900EFE0CFF100
:1031A00063000510130600289305800013054002F4
:1031B000EFE05F8713090500E30805F883D789006E
:1031C0006386070093850900EFE0DFBC03556401C7
:1031D00083244900EFD04FF12380A40013558500CC
:1031E000A380A40013850B00EFD00FF02381A4006F
:1031F00013558500A381A40023830400A383040046
:1032000003558900EFD04FEE2382A40013558500AB
:10321000A382A4008347440193F71700639A07022F
:103220000356890013870A0093060B0093051001CB
:1032300013050900EFD05FB16316050037050100E3
:103240001305F5FF2383A40013558500A383A40071
:103250009307C4008346B400232CFA020347A4005A
:1032600013080A009307100113860A0093050B0048
:1032700013050900EF200055232C0A0293040500D2
:103280006306390113050900EFE08FEC9387C18DC8
:1032900003D70706130717002390E7066FF09FEC8C
:1032A000138909006FF09FF2630E0502638C05021B
:1032B000630A060263080702832705006388070084
:1032C00013F8070F9308000E6316180193074700C1
:1032D0006FF05FDE03284700639A0701930705003C
:1032E0006FF01FFF130500FF678000001305C0FF8C
:1032F000678000006308050A6386050A6304060AFE
:10330000130101FE232C8100232A9100232821018F
:1033100023263101232E11001304050003458500E7
:10332000938906009304060013890500630E0502C5
:10333000EFE08FAF631005049387C18D03D7E706D5
:103340001305C0FF130717002397E7068320C10169
:103350000324810183244101032901018329C10040
:10336000130101026780000013050600EF204004EE
:103370006FF05FFC130705001305040003248101AF
:103380008320C10193860900138604008329C100AC
:10339000832441019305090003290101130101025E
:1033A0006FF09FF0130500FF67800000630A0500BF
:1033B0006388050083568501130645006FF09FF36F
:1033C000130500FF67800000930700006388050075
:1033D00083C745039387170093F7F70F2304F5007E
:1033E00067800000930700FF6300050A638E0508ED
:1033F000130101FF232481002322910023202101B6
:1034000023261100835765011304050013090600E4
:1034100093840500638C070283A70400231C240106
:103420002322F4008347440193E74700230AF40072
:1034300083A6818713870600631207042328D4001C
:1034400023AC8186930700006F0080011306000003
:1034500093050500EFF01FB793070500E30E05FA8B
:103460008320C1000324810083244100032901003B
:10347000138507001301010167800000E30487FC46
:10348000032707016FF05FFB1385070067800000CB
:10349000630E05008347450123220500231C050018
:1034A00093F7B7FF23040500230AF50067800000A7
:1034B00063060500232EB5002320C50267800000A7
:1034C00093050500630E050283A78187639CA7000F
:1034D0008327050123ACF186130510006FD0DFBDF3
:1034E00093070700E38A07FE03A70701E30607FE29
:1034F000E318B7FE03A7050123A8E7006FF0DFFD7F
:1035000067800000130101FF1305100023248100D0
:1035100023261100EFD01FB413040500630C05002F
:103520001306400293050000EF2090289307F0FF58
:10353000A305F400130504008320C10003248100C7
:1035400013010101678000006FF0DFFB63000502DB
:1035500083270500638C0700638A050083A70500A5
:103560006386070083A78187639407006780000054
:1035700083A60700032705006396E60003A705005E
:1035800023A0E70083A707016FF01FFE130101FED0
:10359000232A9100931415003387A40023282101C6
:1035A0001317370013894195232C810023263101FD
:1035B000232E11003309E9009309050003250900B2
:1035C0001384419563060500EFE08FB823200900BE
:1035D00033853401131535003305A400B705008089
:1035E000230A0500231905002324050023220500D2
:1035F00013066000938505351305C500EF20103CC8
:103600008320C10103248101832441010329010195
:103610008329C1001301010267800000130101FE2C
:10362000232C8100232A910093864195232E11009B
:10363000232821012326310193020000930F00006B
:10364000130F00001303A000930700001307A0004E
:103650009308A0009304A00013844195130EA000CA
:103660009303100083CE46016312C70563840E10D6
:10367000630E05000329050003A84600631809012D
:10368000630A060A03A886006306C80A03D826014F
:10369000639A7E0C83AE0600638E0E0A636AE801AD
:1036A000130F0800138307006F008000E3920EFCE5
:1036B00093871700139807011358080193170801FF
:1036C0009386860193D70741E31EC8F9930610003D
:1036D0009307F0FF6390D5069309060013090500D0
:1036E0006310C703639CE8086396140163049304A2
:1036F0009304030013850400EFF05FE913870400CF
:1037000093171700630C090003260900B386E7002E
:1037100093963600B306D40023A2C600B387E70011
:1037200093973700B307F4002399070023A43701C8
:10373000930707008320C1010324810183244101F1
:10374000032901018329C100138507001301010228
:1037500067800000E36EF8F5930F0800938407007C
:103760006FF01FF5E36658F4930208009388070092
:103770006FF01FF4138707006FF09FF39384080026
:103780006FF05FF7130101FC23263103232441036B
:103790002322510393090500138A0500930A0600AA
:1037A0009305C0011306002813050001232A910286
:1037B00023206103232E7101232C8101232A9101EF
:1037C00023261101232E1102232C810223282103F9
:1037D000938C0600930B0700138C0700130B080053
:1037E000EFE04FA49384C18D8328C10063140504C6
:1037F00083D7C4001305F0FF938717002396F400C6
:103800008320C1030324810383244103032901038B
:103810008329C102032A8102832A4102032B010268
:10382000832BC101032C8101832C4101130101046D
:103830006780000003244500130905001385080074
:10384000EFD08F8A2303A40013558500A303A4009F
:103850001306600093850C0013058400EF201016FA
:103860001306600093050C0013052401EF201015CA
:103870001306400093850B001305E400EF2010149D
:103880001306400093050B0013058401EF2010136D
:1038900093071000A300F400930780002301F400B5
:1038A000930760002302F4003717000093074000DD
:1038B000A302F4001307678093860A0013060A0028
:1038C0009305090023000400A301040013850900E7
:1038D000EFC05FF283D70400130509009387170038
:1038E0002390F400EFE0CF86130500006FF05FF146
:1038F000130101FE232C8100232A9100232821019A
:1039000023263101232E11009309050013844195CC
:10391000930400001309A00083474401638A070051
:10392000832784006396370113850400EFF01FC6D8
:103930009384140013048401E39024FF8320C101C5
:103940000324810183244101032901018329C1004A
:103950001301010267800000130101FE9387050037
:10396000232C810093052000130406001306050094
:1039700013850700232E11002326D100EFF01FCA64
:103980006348050493171500B387A7001387419573
:10399000939737003306F70083454601130610005E
:1039A0006378B6021386C7008326C1003306C700BA
:1039B000938747002320C400B307F70023A0F60035
:1039C0008320C101032481011301010267800000EB
:1039D0001305F0FF6FF0DFFE9307900063E8A70484
:1039E00093171500B387A700138741959397370066
:1039F0003308F70003434801930810001305000043
:103A000063F86802138547003305A70023A0A500CB
:103A1000832588009387C700B307F7002320B600EB
:103A200023A0F600130510006780000013050000B6
:103A30006780000063800522130101FC232C8102B2
:103A40002328210323263103232E1102232A910246
:103A5000232441032322510323206103232E7101D8
:103A6000832445001384050083C7140003C70400A2
:103A70009309050093978700B3E7E7001307001049
:103A80001389C18D639AE70203C74400930760005E
:103A90006314F70203C7540093074000631EF70046
:103AA00083C7340003C7240093978700B3E7E70078
:103AB000130780006388E704835709019387170081
:103AC0002318F90083576900938717002313F9001F
:103AD00013850900EFD0DFE78320C10303248103AE
:103AE00083244103032901038329C102032A81029C
:103AF000832A4102032B0102832BC101130101041C
:103B00006780000083572900130640009385E40076
:103B100093871700130581002311F900EF20006A35
:103B200013064000938584011305C100EF2000694E
:103B300083274400138A8400638607000327C1009B
:103B4000638EE70C930A0000130B2000032581000D
:103B5000630E050893050400EF10D07D6318050877
:103B6000832781001307000E93F7070F6380E70890
:103B70001306040093050B0013058100EFF01FAA44
:103B80006346050693171500B387A7001387419571
:103B900093973700330BF700930620009387C700F5
:103BA000230ADB0023248B001306600093050A0020
:103BB0003305F700EF208060832B0B0023190B00E7
:103BC00063860B023717000023200B0013070780C2
:103BD00093060A001306A40293850B001305040044
:103BE000EFC05FC113850B00EFD09FD683C7740071
:103BF00003C7640093978700B3E7E700130700103B
:103C00006384E70213070020E384E7EC835749014C
:103C100093871700231AF9006FF09FEB930A1000A7
:103C2000130B10006FF09FF2E3840AEA9306A402DC
:103C3000930820001308810093070A00130744002B
:103C400013060A009385060013050400EFF09FB3E6
:103C50006FF01FE8678000009306A502B707008099
:103C60001388050093081000938707351307450054
:103C700013860181938506006FF0DFB0130101FD0B
:103C8000232481022322910223202103232E3101A8
:103C9000232C4101232A510123286101232671018C
:103CA000232611021384419593040000130AB012D5
:103CB000930A1000130B300013094000930B2000EF
:103CC0009309A000034744016306070283572401B8
:103CD000938717009397070193D707012319F400DF
:103CE0006366FA0063145705637EF90413850400C4
:103CF000EFF0DF899384140013048401E39434FD0E
:103D00008320C1020324810283244102032901028A
:103D10008329C101032A8101832A4101032B010167
:103D2000832BC10013010103678000006316670144
:103D3000230A24016FF01FFCE31E27FB230A7401F2
:103D40006FF05FFB0325840093054400EFF0DFF084
:103D50006FF05FFA130101FE23244101138A05006D
:103D6000931516003386C5001316360093854195CA
:103D7000232C8100232A91002328210123263101AD
:103D8000232E1100B384C50003C744011304C600E9
:103D90009307200013090500338485009309A502C9
:103DA0006314F70283D724011307C011637AF70461
:103DB00013064600B385C500EFF01FEA6316050041
:103DC00093073000238AF400930604000324810142
:103DD0008320C101832441011386090093050A0051
:103DE0008329C100032A8100130509000329010169
:103DF0003717000013070780130101026FC09F9F50
:103E00001307D010E372F7FC13064600B7070080D3
:103E10003388C500930810009387073513074500C2
:103E2000938609001306040093850900EFF09F951F
:103E30006FF0DFF8130101FE23225101938A050080
:103E4000232A9100930505009304050003A50A00A9
:103E500023263101232E1100232C81002328210148
:103E60002324410193090600EF10D04C631A051674
:103E700083A70A001307000E93F6070F6382E61666
:103E800063800716138604009305100013850A004B
:103E9000EFF0CFF8635E0502638A09009387C18D56
:103EA00003D7C700130717002396E7008320C1013B
:103EB0000324810183244101032901018329C100D5
:103EC000032A8100832A4100130101026780000058
:103ED0001374F50F131A140033078A009387419562
:103EE00013173700B387E70003C7470113894195CC
:103EF000630607081305F0FF639A090093850A001B
:103F000013850400EFF05FD5E38209FAB3078A0056
:103F100093973700B307F90003C7470193071000D1
:103F200063F6E7066388040083A7840363840700BD
:103F300023808700B3068A0093963600032481010C
:103F40009386C6008320C101032A8100832A410091
:103F5000B306D9001386A402032901019385090041
:103F6000138504008329C100832441013717000011
:103F700013070780130101026FC0DF8713071000CA
:103F8000238AE70023A497006FF05FF7E310F7F2AE
:103F90009387090003C7C700137707046316070454
:103FA00083A70700E39807FE13850900EFD09FD78A
:103FB000B3078A0093973700B307F90003A50700FA
:103FC00063040500EFD0DF9833048A001314340033
:103FD0003304890023203401130500006FF01FED26
:103FE000130500FF6FF09FEC13860900930500286E
:103FF00013050001EFE00F9E93090500E31A05FA8F
:104000009387C18D03D7C7001305F0FF130717006F
:104010002396E7006FF09FE9130101FE232C810036
:10402000232A910023282101232E110013040500C7
:104030001389050093050500032506009304060077
:10404000EF10502F6318051683A704001307000E06
:1040500013F6070F6318E604930710002314F1000A
:104060009307E0052305F10083C714009306810040
:1040700093F7F707A305F10083C724002306F10097
:1040800083C73400A306F100371700001307078029
:104090001306A4029305090013050400EFC08FF571
:1040A0006F00400A0327440003268400930605009E
:1040B00033C7E7003377C70063040702939707010C
:1040C0003707010093D70701130797EA638AE700D0
:1040D0008327C4001305C0FF638607069304C4004A
:1040E0008325840393874195638A050603C60500EB
:1040F000130790006364C706131716003307C70041
:10410000131737003387E7000348470113051000F2
:1041100063760505032587006312850403A5040063
:1041200003274700631CE5029387C18D03D767010E
:1041300013071700239BE7009305090013050400EC
:10414000EFF05FC18320C101032481018324410179
:10415000032901011301010267800000130610000A
:104160001307A00003C547016374A60203A58700D7
:104170006310850203A8040003A54700631AA80082
:10418000638405002380D500138606006FF0DFFAF4
:104190009386160093F6F60F93878701E394E6FC67
:1041A000130609009385040013050400EFF09FC86F
:1041B0006FF05FF9938601816FF01FED130101FC31
:1041C00023263103232441032322510393090500AD
:1041D000938A0500130A060093054002130600287F
:1041E00013054002232E1102232C8102232A91025F
:1041F00023282103EFD01F836308050C0324450007
:1042000003A909009304050023005401A3004401FD
:1042100023020400A302040023030400A3030400F8
:104220000325450083A509001306C0011305850079
:10423000EF10D0780347D9008347C9001305C101A7
:10424000131787003367F7008347E9009397070147
:1042500033E7E7008347F90093978701B3E7E70067
:10426000232EF100EF10C0142326A100630A0504D9
:1042700023010400A301040083D5A4001305040056
:10428000EFC0DFC52301A40013558500A301A400DE
:104290009387C18D03D787040328C1009306F00FCD
:1042A000130717002394E7041306C10193071000B6
:1042B000130700009305000013850400EF10C0747D
:1042C00013850400EFD0CFE88320C10303248103CA
:1042D00083244103032901038329C102032A8102A4
:1042E000832A41021301010467800000130101FDCC
:1042F0002322910223248102232671012326110205
:1043000023202103232E3101232C4101232A510193
:1043100023286101232481019387C18D03D7A7043A
:1043200013040500130717002395E7041387418C36
:10433000032C8700130730019384C18D834A0C003E
:1043400093FAFA00939A2A006378572B8356A500B4
:10435000130730006372D72A03274500034707007D
:104360006306072293068000631AD726938B418C3D
:1043700003A54B019307000E938905001377050FE2
:10438000138945006304F7001389818D83A50B0011
:10439000EF10407A63040500138949000357840035
:1043A0009307700063FAE72413050400EFC05FB5BC
:1043B0006304050413050400EFD08FD983D70405E7
:1043C000938717002398F4048320C10203248102F9
:1043D00083244102032901028329C101032A8101A7
:1043E000832A4101032B0101832BC100032C81008F
:1043F0001301010367800000138B0A01139A0A015D
:1044000093050B0013050400135A0A01EFD0CFCA1D
:104410006308051A83578400B38547019395050106
:1044200093D5050163E4F502130600281305000186
:10443000EFD04FDF130B0500630A05000357A500FB
:1044400093878A006370F702EFD08FD013050400C2
:10445000EFD00FD083D7C40593871700239EF404B1
:104460006FF09FF60325450093050C0013860A00A4
:10447000EF10D05493850A0013050B00EFD0CFC482
:104480006306050013050B006FF01FFC9305040085
:1044900013050B00EFD0DF97E31605FE13050400AC
:1044A000EFD00FCB13040B0093850A001305040013
:1044B000032B4400EFD04FC0631A050C832709007B
:1044C000832A440013D787002386FA00A386EA00D4
:1044D00013D7070193D787012387EA00A387FA0040
:1044E00083A70B0113D787002388FA00A388EA006B
:1044F00013D7070193D787012389EA00A389FA001C
:1045000083473B0003472B0023000B009397870052
:10451000B3E7E70037070100130777FF637CF70A6B
:10452000938797009397070193D707012301FB0017
:1045300093D78700A301FB009307F0FF2384FA00C1
:1045400093050A0023850A00A3850A0013850A0043
:10455000EFC0DF982385AA0013558500A385AA0024
:1045600083D784041388090013070000938717007A
:104570002394F4049306F00F930710001306000031
:104580009305090013050400EF100048130504000B
:10459000032481028320C1028324410203290102F2
:1045A0008329C101032A8101832A4101032B0101CF
:1045B000832BC100032C8100130101036FD04FB97D
:1045C00093050B0013050400EFD00FB0E30E05ECCC
:1045D0006FF0DFE7938787006FF0DFF403D787057D
:1045E00013071700239CE70403D7E70413071700FA
:1045F0002397E7046FF09FF913050400EFD04FB540
:1046000083D72405938717002399F4046FF0DFDB29
:1046100013F6F50F13054500930530006FF01FBA30
:1046200013F6F50F130545009305B0006FF01FB9A1
:1046300083A6018883270500639AA60023A0F1883A
:1046400093050500130520006FC01FA723A0F500E8
:104650006FF01FFF130101FE232C8100232A91001C
:1046600023244101232E1100232821012326310177
:104670000329450093040500138A05008327490098
:104680001304000003C7570083C6470013178700B1
:104690003367D7006310070603C7170083C60700F8
:1046A0009305850013178700B366D70003C727005B
:1046B00083C7370013064001131707013367D7007C
:1046C00093978701B3E7E7002322F500032549000C
:1046D000EF10D02E9305100013050900EFF05FF4E2
:1046E00013050900EFD0CFE11304050013050900FD
:1046F000EFD00FA603A9440063100904138504003A
:1047000093050A00EFF0DFF283D7C1871305040099
:104710008320C101B387874003248101239EF18652
:1047200083244101032901018329C100032A810057
:1047300013010102678000000327490013050900E7
:10474000834717008349070093978700B3E7370132
:104750008349270093990901B3E7F900834937009A
:1047600093998901B3E9F900EFD08FD93304A400FC
:10477000131404011305090013540401EFD04F9DD5
:10478000138909006FF05FF7130101FE232C8100EC
:10479000232A9100232631012324410123225101A0
:1047A000232E11002328210113040500138A05007C
:1047B000930400009309100083A7018813090000E7
:1047C0009305000013060000130500006390070422
:1047D00063060500EFF01FE8B384A40063D444012E
:1047E000E3CC29FD8320C10103248101138504004A
:1047F00003290101832441018329C100032A810087
:10480000832A410013010102678000008346D4001F
:104810000347C40093968600B3E6E6000347E4002E
:1048200013170701B366D7000347F4001317870176
:104830003367D70083A647016396E60483461401D5
:104840000347040193968600B3E6E600034724017C
:1048500013170701B366D700034734011317870105
:104860003367D70083A68701639EE60003475400A1
:104870000348440083D6C700131787003367070136
:104880006380E602130919006308050083C6F70177
:104890000347F5016366D7009305060013850700FB
:1048A00003A70700630407001386070093070700A8
:1048B0006FF0DFF193050500032545016304050250
:1048C000130101FE232E11002326B100EFD04F88E3
:1048D0008325C1008320C1011305300013010102AB
:1048E0006FC08FFD130530006FF09FFF03A5018897
:1048F000130101FF232481002326110023229100AC
:1049000013040000631C05008320C1000324810000
:104910008324410013010101678000008347F501F2
:1049200083240500638C07009387F7FFA30FF5002E
:1049300013040500138504006FF0DFFC93050400E9
:10494000EFF05FD1130504006FF09FFE130101FD2E
:10495000232A51012320210323261102232481022B
:1049600023229102232E3101232C410123286101AE
:104970002326710123248101232291012320A101F7
:104980001387C18D8357A70113090500938AC18D31
:1049900093871700231DF700832445001307400168
:1049A00083C7040093F7F700939727006386E70215
:1049B00083D7CA02938717002396FA0283D7EA01A6
:1049C000130509001309000093871700239FFA00BD
:1049D000EFC01FF86F00005683C7740003C5640062
:1049E0009397870033E5A700EFB01FF083C734002B
:1049F000130C050003C524009397870033E5A70037
:104A0000EFB09FEE83C7040093F7F700939727005A
:104A1000E366F5FA330BF54013050900EFD04FAE0E
:104A200083D7C187131B0B0113048000B387A70032
:104A3000135B0B01930B05006358F402930505000B
:104A400013850400EFF05FD46308050083D7C187A6
:104A5000B3877701635AF40083D74A02938717001C
:104A60002392FA026FF09FF503A4018863160406EF
:104A700013052000EFC00FDE1304050063120502CA
:104A800093850B0013850400EFF01FD0E34675FDFE
:104A900013052000EFC00FDC13040500E30E05FA38
:104AA0001306C0019305000013054400EF104050A9
:104AB0009307F000A30FF40083A7018823A0818847
:104AC0002320F4001306400193850400130584009D
:104AD000EF10C06E6F00C00C03C7D40083C7C400C2
:104AE000131787003367F70083C7E4009397070124
:104AF00033E7E70083C7F40093978701B3E7E70044
:104B0000032744016310F71C03C7140183C7040182
:104B1000131787003367F70083C7240193970701B2
:104B200033E7E70083C7340193978701B3E7E700D2
:104B3000032784016318F71883C7540083C6440011
:104B40000357C40093978700B3E7D700631CF71699
:104B500083D7EA02B72C0000938CFCFF93871700E1
:104B60002397FA0283C7740003C5640093978700F4
:104B700033E5A700EFB05FD7337595011315050135
:104B800013550501631E05000355E400EFB0DFD5A2
:104B9000337595011315050113550501E31405F24D
:104BA00083CC6400131C3C01135C3C0193FC0C029D
:104BB000131C3C0063900C02B3076C019397070130
:104BC00093D7070163EA8745370701001307B7FE4C
:104BD0006364F744032D490083473D0003452D00DE
:104BE0009397870033E5A700EFB01FD083440D00F3
:104BF00093F4F40093942400636095423305954048
:104C000083477D009314050103456D00939787004A
:104C100093D4040133E5A700EFB01FCD1315350180
:104C2000135535011315350083274900B386A400B9
:104C3000939606011357850093D60601A382E700D9
:104C400013D7860023800700A38007002381070075
:104C5000A38107002382A7002383D700A383E70053
:104C600063ECA63A032644009308100013070000E3
:104C7000631E0604630C0710834677000346670033
:104C80002300270193968600B3E6C60013568900D9
:104C9000A300C70013560901135989012301C70056
:104CA000A301270103C7570003C647001317870056
:104CB0003367C7006384E60A9308000063920C0A16
:104CC0006F00000B032404006FF05FDA83254600B9
:104CD00003C8550003C345001318880033686800F3
:104CE000637A050B135886002380C700A380070151
:104CF000135806011356860123810701A381C700BB
:104D0000630C070603467700034867001316860006
:104D1000336606016362C53003C5450083C555008F
:104D200093958500B3E5A50063E8D52E93568900D9
:104D300023002701A300D7009356090113598901C5
:104D40002301D700A301270103C7570083C64700EB
:104D5000131787003367D700E310E6F663880C006B
:104D60000347E401137717006304070063960808FC
:104D7000930800006F00000D03C7550003C64500EF
:104D8000131787003367C7006368D72823222401DD
:104D90006FF0DFFC6302052903C6750003C36500DD
:104DA00013168600336666006368C526630E070027
:104DB0000346670003477700131787003367C70070
:104DC0006304E8009308000003C7150003C605004C
:104DD000131787003367C70003C6250013160601A3
:104DE0003367E60003C63500131686013366E60016
:104DF000138705006FF0DFE703274400E30A07F697
:104E00008326470003C7560003C6460013178700D2
:104E10003367C700E31E07F483C6170003C7070004
:104E200093968600B3E6E60003C727001317070131
:104E3000B366D70003C73700131787013367D7005E
:104E40006318071283D7C187B38BFB00239E71873A
:104E5000639C0C008347E401330B6C01231E640147
:104E600093E71700230FF400130900006384080C74
:104E700083274400835AC4011306400103A9470055
:104E8000938A4A01930584008347190083440900EB
:104E90001305090093978700B3E79700834429001F
:104EA000939A0A0193DA0A0193940401B3E7F40098
:104EB0008344390093948401B3E4F400EF1000308C
:104EC00013850A00EFB05FA22301A90013558500E6
:104ED000A301A90023030900A30309002305090076
:104EE000A30509001305090093054001EFB01FFF5A
:104EF0002305A90013558500A305A9000329440033
:104F00006394040C83A70188638687009384070059
:104F1000639007109385040013050400EFF04FF130
:104F200013050900EFC0DFDD83D7C1873385A740B4
:104F3000239EA1868320C102032481021305090058
:104F400083244102032901028329C101032A81012B
:104F5000832A4101032B0101832BC100032C810013
:104F6000832C4100032D0100130101036780000021
:104F70008326470083C5670003C7770083C75600B1
:104F800003C6460013178700939787003367B7005F
:104F9000B3E7C700E31EF7DC83C7160003C70600AC
:104FA00093978700B3E7E70003C7260013170701AD
:104FB000B367F70003C73600131787013367F7009D
:104FC000938706006FF0DFE7930540011385040027
:104FD00083AA4400EFC05F8F938504001305090086
:104FE000EFC0DFD783C71A0083C40A0093978700F6
:104FF000B3E7970083C42A0093940401B3E7F40055
:1050000083C43A0093948401B3E4F4006FF05FEF3B
:1050100083A704006FF05FEF83274400E390079AB3
:105020009305000013050400EFF08FE06FF01F9967
:10503000130101F923261106232481062322910658
:1050400023202107232E3105232C4105232A510536
:105050002328610523267105232481052322910538
:105060002320A105232EB10383D78502032C4500FD
:10507000232EC1001387C7FE9357F74193F777009C
:10508000B387E70093D737409397070193D707017A
:105090002328F10083470C001307400193F7F70022
:1050A000939727006398E72A0357A50093073001D9
:1050B000130405001305A0FF63F6E70883477C008F
:1050C00003456C00938C05009397870033E5A70098
:1050D000EFB09F81372700003377E500232CE100F4
:1050E0000327010183548400B727000013173700FA
:1050F000131707019387F7FF13570701B37BF500D9
:105100009384C4FE2326E1002311E1023757008077
:10511000939B0B01939404011307478B2324F10203
:105120009387C18D93DB0B0193D40401130A4001D3
:10513000130900002322E102232AF10063920404F0
:10514000130500008320C106032481068324410641
:10515000032901068329C105032A8105832A410504
:10516000032B0105832BC104032C8104832C4104F0
:10517000032D0104832DC103130101076780000083
:105180008327C100835A210263F4F400938A040048
:10519000130600289305400113050001939A0A01A4
:1051A000EFC05F8893DA0A01130B0500630605065A
:1051B000032545001306400193050C00EF10000085
:1051C00083294B00938D0A0063800D0C8357A40044
:1051D000B3874741138907009397070193D70701C6
:1051E00063F4FD0013890D00131909011359090116
:1051F0006318090003240400130A00006FF0DFFCA9
:1052000013053000EFB01FE5130D0500631A05000C
:1052100013050B00EFC0CFF31305F0FF6FF09FF203
:10522000032744009306050093070900330747014D
:10523000130610049305090013050000EFC08FE268
:10524000631A050093050D0013053000EFB0DFE68B
:105250006FF01FFC2326A10213050400EFC09FACD2
:10526000832741028325C102232A8D002328FD00C4
:1052700013050B00EFC09FAE33882D41931D08012D
:1052800093DD0D01E3980DF683278102330A49016E
:10529000131A0A0133F5FB0083D78C02135A0A0153
:1052A0009387D7FE63D6F4008327810163860700C6
:1052B000B72700003365F500EFB00FE32383A900A3
:1052C00013558500A383A90013854A011315050111
:1052D00013550501EFB04FE12381A9001355850057
:1052E000A381A9009305400123850900A385090036
:1052F00013850900EFB09FBE2385A90013558500D3
:10530000A385A90083A74C010326C10193050B00C7
:1053100013850C00E7800700832741010327410123
:1053200013050B0083D78701B38454419394040180
:1053300093871700231CF700EFC08FE1832701013B
:1053400093D40401B38BFB00939B0B0193DB0B0104
:105350006FF0DFDE1305A0FF6FF0DFDE834715037C
:1053600093F71700638007040327450093050500A2
:1053700013050000630C070283A7818D130510003D
:105380006306F702130101FF1385070023261100AE
:10539000EF00407A8320C1003335A00013010101E2
:1053A0006780000013050000678000006780000030
:1053B00083A781866394070403A7418663040702D9
:1053C000834617031306500093F65600639CC600ED
:1053D0008326470063880600034605009306F0070E
:1053E0006314D6061387C18D8356E7039386160090
:1053F000231FD702138507006780000083C61703A9
:1054000013F71600630E070213D726001377170051
:105410006308070203A74700630407020326050089
:1054200083A587003347C7003377B700E30407FC41
:1054300093F626006396060003A7C700E30CE6FA7E
:1054400083A707006FF01FF7930707006FF09FFA1D
:10545000130101FD2322910223202103232611029F
:1054600023248102232E3101232C4101232A5101BF
:105470002328610123267101232481011389C18D11
:1054800083572903938717002319F90283294500BD
:105490009307400003CB090013574B00630AF7043E
:1054A000EFC00FCB83574904938717002312F904E9
:1054B0008357690393871700231BF9028320C102D6
:1054C0000324810283244102032901028329C101AB
:1054D000032A8101832A4101032B0101832BC1008F
:1054E000032C8100130500001301010367800000F5
:1054F00083C739001304050003C52900939787006B
:10550000938A050033E5A700EFB00FBE137BFB00C5
:1055100083578400131B2B0013190B019384C18D37
:1055200013590901130A05006378F5009305050076
:1055300013050400EFC0CFEA8357A40063EA2701F4
:105540008357840063E647019307300163E4270330
:1055500013050400EFC0CFBF83D7A40393871700C0
:10556000239DF40283D7640393871700239BF402DF
:105570006FF0DFF49305090013850900EFB01F9663
:10558000630E050013050400EFC08FBC83D78403AE
:1055900093871700239CF4026FF0DFFC03C7190107
:1055A00083C70901131787003367F70083C72901F1
:1055B0001386418C1389418C9397070133E7E700E9
:1055C00083C7390193978701B3E7E700232AF600E1
:1055D00083C6D90003C7C90093F7070F93968600C7
:1055E000B3E6E60003C7E90013170701B366D70067
:1055F00003C7F900131787013367D7002328E60094
:105600001307000E6394E70483C71A0393F7170088
:10561000638E070483A74A00638A0704138A0A007B
:105620000325090193850A00EF00C050631A0500A5
:10563000832709011307000E93F7070F639AE70406
:1056400013050400EFC0CFB06FF0DFF113850A003F
:10565000EFF0DFD0E31405FC034749019307F0079F
:105660006306F70003AA818663160A00130A000086
:105670006FF01FFB63165A01032A0A006FF0DFFE6A
:1056800013050A00EFF09FCDE30805FE6FF05FF908
:10569000631E0A0083D76403130504009387170071
:1056A000239BF402EFC0CFAA6FF05FE183C76900CC
:1056B00003C7790093F7F70313178700B3E7E700F1
:1056C000638C070013050400EFF04FA813040500D6
:1056D000E30605DE832945002320490123225901E1
:1056E0002324390183C7090093850A0013050400A8
:1056F00093F7F700939727002316F900130C100077
:10570000EFC01FE3930B05006306850393050B00B1
:1057100013050400EFC04F9B83C79900638A87037A
:1057200013071001639EE70293850A001305040026
:10573000EFD00FDC232009002322090023240900D5
:105740002316090023280900232A09006FF01FD718
:1057500093850A0013050400EFE05FB96FF09FFD29
:1057600093072000638AFB040325490193050A007F
:10577000EF00403C63160502832749011307000E22
:1057800093F7070F638EE70093050B0013050400E2
:10579000EFC0CF9A9305200013050400EFE05FE708
:1057A00083D70404938717002390F40483D76403FA
:1057B00093871700239BF40213050400EFC04F9951
:1057C0006FF05FF7130101FC232821032324410319
:1057D00023225103232E1102232C8102232A91021A
:1057E00023263103232061032326D1002324F10043
:1057F0002322C10013090500130A0800938AC18DF2
:105800006308061A93890500930540019304070075
:10581000EFC08F8A03264100832781008326C100C1
:10582000630E050283D74A041305E0FF9387170030
:105830002392FA048320C1030324810383244103B8
:10584000032901038329C102032A8102832A410219
:10585000032B0102130101046780000003244900A7
:105860002322C1002304D400A304F40093968600ED
:10587000B3E7F60083260600A30094009394840007
:1058800093D586002308D400A308B40013D586015D
:1058900093D506019396060193D60601B386B6000A
:1058A000A309A40093E45404130550042309B4008D
:1058B0002300A400B384D4009396870093D7874035
:1058C000B3E7F600035589009397070193D70701C3
:1058D000B384F400EFB04F81935785002301A400F7
:1058E000B304950003D54188A301F4002303040009
:1058F000A3030400EFA05FFF93578500A302F40009
:1059000083D741882302A400032641009387170010
:105910002392F188330595006398090803A78185D0
:1059200093568701A307D400B70601009357870059
:105930009386F6FF2306E400A306F40093570701BD
:105940003377D7003307A7003387E7002307F40036
:10595000935707013377D7003387E7009357070141
:10596000B387E70093C7F7FF9397070193D7070122
:105970002305F40093D78700A305F40083D70A0317
:10598000938717002398FA0283578A0263840706D5
:105990000357890063F0E70693050A001305090021
:1059A000EFF00FE96FF01FE903A709006FF05FF751
:1059B0000357A50093073001E3F6E7E68326450089
:1059C0001306C10103C7160183C706011317870019
:1059D0003367F70083C726019397070133E7E70092
:1059E00083C7360193978701B3E7E700232EF100C1
:1059F0006FF0DFF883274A019305090013050A00B9
:105A0000E78007006FF01FE3630A06006386050066
:105A100083A8050063940800930548006FF09FDA9F
:105A2000130101FD23248102130405001305060060
:105A3000232EB100232CD100232AE1002328F100DA
:105A40002326C10023261102EFF09F960326C100F2
:105A50008327010103274101832681018325C10199
:105A6000630E0500130805001305040003248102DA
:105A70008320C102130101036FF01FF99387C18DC9
:105A800003D7E7031305C0FF13071700239FE7029F
:105A90008320C102032481021301010367800000F7
:105AA000130101FD23229102930405001305060052
:105AB000232EB100232CD100232AE1002328F1005A
:105AC000232601012324C10023261102232481025D
:105AD000EFF01F8E032681000328C10083270101F8
:105AE00003274101832681018325C1016316050235
:105AF0009387C18D03D7E7031305C0FF1307170072
:105B0000239FE7028320C1020324810283244102F0
:105B10001301010367800000232C05031304050013
:105B20001308050013850400EFF01FEE232C040278
:105B30006FF05FFD9306F5FF9307D0FF1307050095
:105B400063E0D70483C7150313F52700630C050230
:105B500083A74500130500006386E70283A685003E
:105B6000B3C7E700B3F7D700639E070093C6F6FFFD
:105B700033F5E6003305D540133515006780000086
:105B80001305100067800000130101FF2326110098
:105B9000EFA01FD713070002B7070080B376F50008
:105BA000638606021307F7FF93D71700E31807FE73
:105BB000130510008320C10013010101678000005C
:105BC00033F7A7006318070093D71700E39A07FE7F
:105BD0006FF01FFE130500006FF0DFFD130101FBE6
:105BE0002324810423202105232E3103232A51035A
:105BF0002326710323248103232291032320A1035D
:105C0000232EB1012326110423229104232C4103C6
:105C1000232861038344050013090100B70A0080AB
:105C200093890500930B0900938A1A1E130400033D
:105C3000130C8005930C0001130D2000930DE0025E
:105C40001307C100B387540183C7070093F74700C8
:105C5000638A071C130BA000639C84008344150017
:105C600093F7F40D6384870513051500130B80006B
:105C7000130A050013050000B3879A0083C70700C5
:105C800093F64700638C06029305050013050B008D
:105C9000EF00C03F3305950083441A00130505FD4E
:105CA0001307C100130A1A006FF01FFD834425007B
:105CB000130B0001130525006FF09FFB631A9B0374
:105CC00093F647046386060293F7370013154500E1
